{
  "contractName": "Showup",
  "abi": [
    {
      "anonymous": false,
      "inputs": [
        {
          "indexed": false,
          "internalType": "uint256",
          "name": "id",
          "type": "uint256"
        },
        {
          "indexed": false,
          "internalType": "string",
          "name": "hash",
          "type": "string"
        },
        {
          "indexed": false,
          "internalType": "string",
          "name": "description",
          "type": "string"
        },
        {
          "indexed": false,
          "internalType": "uint256",
          "name": "tipAmount",
          "type": "uint256"
        },
        {
          "indexed": false,
          "internalType": "address payable",
          "name": "author",
          "type": "address"
        }
      ],
      "name": "ImageCreated",
      "type": "event"
    },
    {
      "anonymous": false,
      "inputs": [
        {
          "indexed": false,
          "internalType": "uint256",
          "name": "id",
          "type": "uint256"
        },
        {
          "indexed": false,
          "internalType": "string",
          "name": "hash",
          "type": "string"
        },
        {
          "indexed": false,
          "internalType": "string",
          "name": "description",
          "type": "string"
        },
        {
          "indexed": false,
          "internalType": "uint256",
          "name": "tipAmount",
          "type": "uint256"
        },
        {
          "indexed": false,
          "internalType": "address payable",
          "name": "author",
          "type": "address"
        }
      ],
      "name": "ImageDeleted",
      "type": "event"
    },
    {
      "anonymous": false,
      "inputs": [
        {
          "indexed": false,
          "internalType": "uint256",
          "name": "id",
          "type": "uint256"
        },
        {
          "indexed": false,
          "internalType": "string",
          "name": "hash",
          "type": "string"
        },
        {
          "indexed": false,
          "internalType": "string",
          "name": "description",
          "type": "string"
        },
        {
          "indexed": false,
          "internalType": "uint256",
          "name": "tipAmount",
          "type": "uint256"
        },
        {
          "indexed": false,
          "internalType": "address payable",
          "name": "author",
          "type": "address"
        }
      ],
      "name": "ImageTipped",
      "type": "event"
    },
    {
      "anonymous": false,
      "inputs": [
        {
          "indexed": true,
          "internalType": "address",
          "name": "previousOwner",
          "type": "address"
        },
        {
          "indexed": true,
          "internalType": "address",
          "name": "newOwner",
          "type": "address"
        }
      ],
      "name": "OwnershipTransferred",
      "type": "event"
    },
    {
      "constant": true,
      "inputs": [],
      "name": "imageCount",
      "outputs": [
        {
          "internalType": "uint256",
          "name": "",
          "type": "uint256"
        }
      ],
      "payable": false,
      "stateMutability": "view",
      "type": "function"
    },
    {
      "constant": true,
      "inputs": [
        {
          "internalType": "uint256",
          "name": "",
          "type": "uint256"
        }
      ],
      "name": "images",
      "outputs": [
        {
          "internalType": "uint256",
          "name": "id",
          "type": "uint256"
        },
        {
          "internalType": "string",
          "name": "hash",
          "type": "string"
        },
        {
          "internalType": "string",
          "name": "description",
          "type": "string"
        },
        {
          "internalType": "uint256",
          "name": "tipAmount",
          "type": "uint256"
        },
        {
          "internalType": "address payable",
          "name": "author",
          "type": "address"
        }
      ],
      "payable": false,
      "stateMutability": "view",
      "type": "function"
    },
    {
      "constant": true,
      "inputs": [],
      "name": "name",
      "outputs": [
        {
          "internalType": "string",
          "name": "",
          "type": "string"
        }
      ],
      "payable": false,
      "stateMutability": "view",
      "type": "function"
    },
    {
      "constant": false,
      "inputs": [],
      "name": "renounceOwnership",
      "outputs": [],
      "payable": false,
      "stateMutability": "nonpayable",
      "type": "function"
    },
    {
      "constant": false,
      "inputs": [
        {
          "internalType": "address",
          "name": "newOwner",
          "type": "address"
        }
      ],
      "name": "transferOwnership",
      "outputs": [],
      "payable": false,
      "stateMutability": "nonpayable",
      "type": "function"
    },
    {
      "constant": false,
      "inputs": [],
      "name": "toggleCircuitBreaker",
      "outputs": [],
      "payable": false,
      "stateMutability": "nonpayable",
      "type": "function"
    },
    {
      "constant": false,
      "inputs": [],
      "name": "close",
      "outputs": [],
      "payable": false,
      "stateMutability": "nonpayable",
      "type": "function"
    },
    {
      "constant": false,
      "inputs": [
        {
          "internalType": "string",
          "name": "_imgHash",
          "type": "string"
        },
        {
          "internalType": "string",
          "name": "_description",
          "type": "string"
        }
      ],
      "name": "uploadImage",
      "outputs": [],
      "payable": false,
      "stateMutability": "nonpayable",
      "type": "function"
    },
    {
      "constant": false,
      "inputs": [
        {
          "internalType": "uint256",
          "name": "_id",
          "type": "uint256"
        }
      ],
      "name": "tipImageOwner",
      "outputs": [],
      "payable": true,
      "stateMutability": "payable",
      "type": "function"
    }
  ],
  "bytecode": "0x60806040526040518060400160405280600681526020017f53686f7775700000000000000000000000000000000000000000000000000000815250600290805190602001906200005192919062000130565b506001600360006101000a81548160ff02191690831515021790555060006004556000620000846200012860201b60201c565b9050806000806101000a81548173ffffffffffffffffffffffffffffffffffffffff021916908373ffffffffffffffffffffffffffffffffffffffff1602179055508073ffffffffffffffffffffffffffffffffffffffff16600073ffffffffffffffffffffffffffffffffffffffff167f8be0079c531659141344cd1fd0a4f28419497f9722a3daafe3b4186f6b6457e060405160405180910390a350620001df565b600033905090565b828054600181600116156101000203166002900490600052602060002090601f016020900481019282601f106200017357805160ff1916838001178555620001a4565b82800160010185558215620001a4579182015b82811115620001a357825182559160200191906001019062000186565b5b509050620001b39190620001b7565b5090565b620001dc91905b80821115620001d8576000816000905550600101620001be565b5090565b90565b6116e080620001ef6000396000f3fe6080604052600436106100865760003560e01c80638567ade8116100595780638567ade8146102aa57806392053b63146102d8578063a91b831414610303578063d5eb63cc14610462578063f2fde38b1461047957610086565b806306fdde031461008b57806343d726d61461011b578063715018a6146101325780638485648214610149575b600080fd5b34801561009757600080fd5b506100a06104ca565b6040518080602001828103825283818151815260200191508051906020019080838360005b838110156100e05780820151818401526020810190506100c5565b50505050905090810190601f16801561010d5780820380516001836020036101000a031916815260200191505b509250505060405180910390f35b34801561012757600080fd5b50610130610568565b005b34801561013e57600080fd5b5061014761066c565b005b34801561015557600080fd5b506101826004803603602081101561016c57600080fd5b81019080803590602001909291905050506107f4565b6040518086815260200180602001806020018581526020018473ffffffffffffffffffffffffffffffffffffffff1673ffffffffffffffffffffffffffffffffffffffff168152602001838103835287818151815260200191508051906020019080838360005b838110156102045780820151818401526020810190506101e9565b50505050905090810190601f1680156102315780820380516001836020036101000a031916815260200191505b50838103825286818151815260200191508051906020019080838360005b8381101561026a57808201518184015260208101905061024f565b50505050905090810190601f1680156102975780820380516001836020036101000a031916815260200191505b5097505050505050505060405180910390f35b6102d6600480360360208110156102c057600080fd5b810190808035906020019092919050505061097a565b005b3480156102e457600080fd5b506102ed610e5e565b6040518082815260200191505060405180910390f35b34801561030f57600080fd5b506104606004803603604081101561032657600080fd5b810190808035906020019064010000000081111561034357600080fd5b82018360208201111561035557600080fd5b8035906020019184600183028401116401000000008311171561037757600080fd5b91908080601f016020809104026020016040519081016040528093929190818152602001838380828437600081840152601f19601f820116905080830192505050505050509192919290803590602001906401000000008111156103da57600080fd5b8201836020820111156103ec57600080fd5b8035906020019184600183028401116401000000008311171561040e57600080fd5b91908080601f016020809104026020016040519081016040528093929190818152602001838380828437600081840152601f19601f820116905080830192505050505050509192919290505050610e64565b005b34801561046e57600080fd5b50610477611272565b005b34801561048557600080fd5b506104c86004803603602081101561049c57600080fd5b81019080803573ffffffffffffffffffffffffffffffffffffffff169060200190929190505050611367565b005b60028054600181600116156101000203166002900480601f0160208091040260200160405190810160405280929190818152602001828054600181600116156101000203166002900480156105605780601f1061053557610100808354040283529160200191610560565b820191906000526020600020905b81548152906001019060200180831161054357829003601f168201915b505050505081565b610570611574565b73ffffffffffffffffffffffffffffffffffffffff166000809054906101000a900473ffffffffffffffffffffffffffffffffffffffff1673ffffffffffffffffffffffffffffffffffffffff1614610631576040517f08c379a00000000000000000000000000000000000000000000000000000000081526004018080602001828103825260208152602001807f4f776e61626c653a2063616c6c6572206973206e6f7420746865206f776e657281525060200191505060405180910390fd5b600160009054906101000a900473ffffffffffffffffffffffffffffffffffffffff1673ffffffffffffffffffffffffffffffffffffffff16ff5b610674611574565b73ffffffffffffffffffffffffffffffffffffffff166000809054906101000a900473ffffffffffffffffffffffffffffffffffffffff1673ffffffffffffffffffffffffffffffffffffffff1614610735576040517f08c379a00000000000000000000000000000000000000000000000000000000081526004018080602001828103825260208152602001807f4f776e61626c653a2063616c6c6572206973206e6f7420746865206f776e657281525060200191505060405180910390fd5b600073ffffffffffffffffffffffffffffffffffffffff166000809054906101000a900473ffffffffffffffffffffffffffffffffffffffff1673ffffffffffffffffffffffffffffffffffffffff167f8be0079c531659141344cd1fd0a4f28419497f9722a3daafe3b4186f6b6457e060405160405180910390a360008060006101000a81548173ffffffffffffffffffffffffffffffffffffffff021916908373ffffffffffffffffffffffffffffffffffffffff160217905550565b6005602052806000526040600020600091509050806000015490806001018054600181600116156101000203166002900480601f0160208091040260200160405190810160405280929190818152602001828054600181600116156101000203166002900480156108a65780601f1061087b576101008083540402835291602001916108a6565b820191906000526020600020905b81548152906001019060200180831161088957829003601f168201915b505050505090806002018054600181600116156101000203166002900480601f0160208091040260200160405190810160405280929190818152602001828054600181600116156101000203166002900480156109445780601f1061091957610100808354040283529160200191610944565b820191906000526020600020905b81548152906001019060200180831161092757829003601f168201915b5050505050908060030154908060040160009054906101000a900473ffffffffffffffffffffffffffffffffffffffff16905085565b60011515600360009054906101000a900460ff1615151461099a57600080fd5b6000811180156109ac57506004548111155b610a1e576040517f08c379a00000000000000000000000000000000000000000000000000000000081526004018080602001828103825260118152602001807f74686520696420697320696e76616c696400000000000000000000000000000081525060200191505060405180910390fd5b610a2661159b565b600560008381526020019081526020016000206040518060a001604052908160008201548152602001600182018054600181600116156101000203166002900480601f016020809104026020016040519081016040528092919081815260200182805460018160011615610100020316600290048015610ae75780601f10610abc57610100808354040283529160200191610ae7565b820191906000526020600020905b815481529060010190602001808311610aca57829003601f168201915b50505050508152602001600282018054600181600116156101000203166002900480601f016020809104026020016040519081016040528092919081815260200182805460018160011615610100020316600290048015610b895780601f10610b5e57610100808354040283529160200191610b89565b820191906000526020600020905b815481529060010190602001808311610b6c57829003601f168201915b50505050508152602001600382015481526020016004820160009054906101000a900473ffffffffffffffffffffffffffffffffffffffff1673ffffffffffffffffffffffffffffffffffffffff1673ffffffffffffffffffffffffffffffffffffffff168152505090506000816080015190508073ffffffffffffffffffffffffffffffffffffffff166108fc349081150290604051600060405180830381858888f19350505050158015610c43573d6000803e3d6000fd5b50348260600151018260600181815250508160056000858152602001908152602001600020600082015181600001556020820151816001019080519060200190610c8e9291906115e0565b506040820151816002019080519060200190610cab9291906115e0565b506060820151816003015560808201518160040160006101000a81548173ffffffffffffffffffffffffffffffffffffffff021916908373ffffffffffffffffffffffffffffffffffffffff1602179055509050507f1be5317bca8d3f70dc1efe89958be71bff36cdca33fc00a6423e25eb2f1d492f83836020015184604001518560600151856040518086815260200180602001806020018581526020018473ffffffffffffffffffffffffffffffffffffffff1673ffffffffffffffffffffffffffffffffffffffff168152602001838103835287818151815260200191508051906020019080838360005b83811015610db4578082015181840152602081019050610d99565b50505050905090810190601f168015610de15780820380516001836020036101000a031916815260200191505b50838103825286818151815260200191508051906020019080838360005b83811015610e1a578082015181840152602081019050610dff565b50505050905090810190601f168015610e475780820380516001836020036101000a031916815260200191505b5097505050505050505060405180910390a1505050565b60045481565b60011515600360009054906101000a900460ff16151514610e8457600080fd5b6000825111610efb576040517f08c379a00000000000000000000000000000000000000000000000000000000081526004018080602001828103825260148152602001807f6e6f6e206578697374696e67206d65737361676500000000000000000000000081525060200191505060405180910390fd5b6000815111610f72576040517f08c379a00000000000000000000000000000000000000000000000000000000081526004018080602001828103825260158152602001807f7765206e6565642061206465736372697074696f6e000000000000000000000081525060200191505060405180910390fd5b600073ffffffffffffffffffffffffffffffffffffffff163373ffffffffffffffffffffffffffffffffffffffff161415611015576040517f08c379a00000000000000000000000000000000000000000000000000000000081526004018080602001828103825260158152602001807f73656e64657220646f6573206e6f74206578697374000000000000000000000081525060200191505060405180910390fd5b61102b600160045461157c90919063ffffffff16565b6004819055506040518060a001604052806004548152602001838152602001828152602001600081526020013373ffffffffffffffffffffffffffffffffffffffff168152506005600060045481526020019081526020016000206000820151816000015560208201518160010190805190602001906110ac9291906115e0565b5060408201518160020190805190602001906110c99291906115e0565b506060820151816003015560808201518160040160006101000a81548173ffffffffffffffffffffffffffffffffffffffff021916908373ffffffffffffffffffffffffffffffffffffffff1602179055509050507fc1d8dfa99b3f84f95d3f0bc4a768addeb97b83b20aef7f9cb6729e126bafd2f960045483836000336040518086815260200180602001806020018581526020018473ffffffffffffffffffffffffffffffffffffffff1673ffffffffffffffffffffffffffffffffffffffff168152602001838103835287818151815260200191508051906020019080838360005b838110156111c95780820151818401526020810190506111ae565b50505050905090810190601f1680156111f65780820380516001836020036101000a031916815260200191505b50838103825286818151815260200191508051906020019080838360005b8381101561122f578082015181840152602081019050611214565b50505050905090810190601f16801561125c5780820380516001836020036101000a031916815260200191505b5097505050505050505060405180910390a15050565b61127a611574565b73ffffffffffffffffffffffffffffffffffffffff166000809054906101000a900473ffffffffffffffffffffffffffffffffffffffff1673ffffffffffffffffffffffffffffffffffffffff161461133b576040517f08c379a00000000000000000000000000000000000000000000000000000000081526004018080602001828103825260208152602001807f4f776e61626c653a2063616c6c6572206973206e6f7420746865206f776e657281525060200191505060405180910390fd5b600360009054906101000a900460ff1615600360006101000a81548160ff021916908315150217905550565b61136f611574565b73ffffffffffffffffffffffffffffffffffffffff166000809054906101000a900473ffffffffffffffffffffffffffffffffffffffff1673ffffffffffffffffffffffffffffffffffffffff1614611430576040517f08c379a00000000000000000000000000000000000000000000000000000000081526004018080602001828103825260208152602001807f4f776e61626c653a2063616c6c6572206973206e6f7420746865206f776e657281525060200191505060405180910390fd5b600073ffffffffffffffffffffffffffffffffffffffff168173ffffffffffffffffffffffffffffffffffffffff1614156114b6576040517f08c379a00000000000000000000000000000000000000000000000000000000081526004018080602001828103825260268152602001806116866026913960400191505060405180910390fd5b8073ffffffffffffffffffffffffffffffffffffffff166000809054906101000a900473ffffffffffffffffffffffffffffffffffffffff1673ffffffffffffffffffffffffffffffffffffffff167f8be0079c531659141344cd1fd0a4f28419497f9722a3daafe3b4186f6b6457e060405160405180910390a3806000806101000a81548173ffffffffffffffffffffffffffffffffffffffff021916908373ffffffffffffffffffffffffffffffffffffffff16021790555050565b600033905090565b60008082840190508381101561159157600080fd5b8091505092915050565b6040518060a0016040528060008152602001606081526020016060815260200160008152602001600073ffffffffffffffffffffffffffffffffffffffff1681525090565b828054600181600116156101000203166002900490600052602060002090601f016020900481019282601f1061162157805160ff191683800117855561164f565b8280016001018555821561164f579182015b8281111561164e578251825591602001919060010190611633565b5b50905061165c9190611660565b5090565b61168291905b8082111561167e576000816000905550600101611666565b5090565b9056fe4f776e61626c653a206e6577206f776e657220697320746865207a65726f2061646472657373a265627a7a7231582098359961011016820a537eae54a18242303555c313e0a0094a5d6a20b79e0f5164736f6c63430005100032",
  "source": "pragma solidity ^0.5.0;\r\n\r\n/**\r\n * @title Showup\r\n * @dev stores an an image's imagehash geneated for IPFS and its description on the Ethereum blockchain\r\n */\r\n\r\nimport \"./SafeMath.sol\";\r\nimport \"./Ownable.sol\";\r\n\r\n\r\ncontract Showup is Ownable {\r\n    using SafeMath for uint256;\r\n    address payable owner;\r\n    string public name = \"Showup\";\r\n    bool isActive = true;\r\n\r\n    /**\r\n     * @dev start a countercache called imageCount with 0.\r\n     */\r\n    uint256 public imageCount = 0;\r\n\r\n    /**\r\n     * @dev store Image-struct in a numbered mapping called images.\r\n     */\r\n    mapping(uint256 => Image) public images;\r\n\r\n    /**\r\n     * @dev Create a struct called Image.\r\n     */\r\n    struct Image {\r\n        uint256 id;\r\n        string hash;\r\n        string description;\r\n        uint256 tipAmount;\r\n        address payable author;\r\n    }\r\n\r\n    /**\r\n     * @dev Initialize events ImageCreated,ImageDeleted and imageTipped\r\n     * to use in the front end what is happening on the blockchain when a transaction has been confirmed.\r\n     */\r\n\r\n    event ImageCreated(\r\n        uint256 id,\r\n        string hash,\r\n        string description,\r\n        uint256 tipAmount,\r\n        address payable author\r\n    );\r\n\r\n    event ImageDeleted(\r\n        uint256 id,\r\n        string hash,\r\n        string description,\r\n        uint256 tipAmount,\r\n        address payable author\r\n    );\r\n\r\n    event ImageTipped(\r\n        uint256 id,\r\n        string hash,\r\n        string description,\r\n        uint256 tipAmount,\r\n        address payable author\r\n    );\r\n\r\n    /**\r\n     * @dev Check wether we can continue execution by evaluating the ContractIsActive ie isActive is true or not.\r\n     */\r\n    modifier contractIsActive() {\r\n        require(isActive == true);\r\n        _;\r\n    }\r\n\r\n    /**\r\n     * @dev OnlyOwner controls the Circuitbreaker switch between isActive and notActive.\r\n     */\r\n    function toggleCircuitBreaker() external onlyOwner {\r\n        isActive = !isActive;\r\n    }\r\n\r\n    /**\r\n     * @dev Stops the contract execution forever and returns funds to the owner.\r\n     */\r\n    function close() public onlyOwner {\r\n        selfdestruct(owner);\r\n    }\r\n\r\n    /**\r\n     * @dev Upload Images to IPFS only when required conditions are fulfilled.\r\n     */\r\n    function uploadImage(string memory _imgHash, string memory _description)\r\n        public\r\n        contractIsActive()\r\n    {\r\n        /**\r\n         * @dev Make sure the imagehash exists.\r\n         */\r\n        require(bytes(_imgHash).length > 0, \"non existing message\");\r\n\r\n        /**\r\n         * @dev Make sure the Description exists.\r\n         */\r\n        require(bytes(_description).length > 0, \"we need a description\");\r\n\r\n        /**\r\n         * @dev Make sure uploader address exists.\r\n         */\r\n        require(msg.sender != address(0), \"sender does not exist\");\r\n\r\n        /**\r\n         * @dev Increment countercache imageCount id upon each iteration of this function.\r\n         */\r\n        imageCount = imageCount.add(1);\r\n\r\n        /**\r\n         * @dev //add image to contract including updated imageCount countercache.\r\n         */\r\n        images[imageCount] = Image(\r\n            imageCount,\r\n            _imgHash,\r\n            _description,\r\n            0,\r\n            msg.sender\r\n        );\r\n\r\n        emit ImageCreated(imageCount, _imgHash, _description, 0, msg.sender);\r\n    }\r\n\r\n    /**\r\n     * @dev  Tip Image Owner only when certain requirements are met\r\n     */\r\n    function tipImageOwner(uint256 _id) public payable contractIsActive() {\r\n        /**\r\n         * @dev  Make sure the id is valid\r\n         */\r\n        require(_id > 0 && _id <= imageCount, \"the id is invalid\");\r\n\r\n        /**\r\n         * @dev Fetch the _image object out of storage\r\n         */\r\n        Image memory _image = images[_id];\r\n\r\n        /**\r\n         * @dev fetch the author\r\n         */\r\n        address payable _author = _image.author;\r\n\r\n        /**\r\n         * @dev Pay author by sending them ether send the tip to the _author\r\n         */\r\n        address(_author).transfer(msg.value);\r\n\r\n        /**\r\n         * @dev Increment the tipamount and put the image back in the mapping .\r\n         */\r\n        _image.tipAmount = _image.tipAmount + msg.value;\r\n\r\n        /**\r\n         * @dev Update the _image with the tipAmount in the mapping.\r\n         */\r\n        images[_id] = _image;\r\n\r\n        /**\r\n         * @dev trigger the ImageTipped event for use in outside world fe frontend.\r\n         */\r\n        emit ImageTipped(\r\n            _id,\r\n            _image.hash,\r\n            _image.description,\r\n            _image.tipAmount,\r\n            _author\r\n        );\r\n    }\r\n}\r\n",
  "sourcePath": "d:/dev/consensys/show-up/src/contracts/Showup.sol",
  "compiler": {
    "name": "solc",
    "version": "0.5.16+commit.9c3226ce.Emscripten.clang"
  },
  "schemaVersion": "3.3.1",
  "updatedAt": "2020-12-07T14:40:41.700Z",
  "networkType": "ethereum",
  "devdoc": {
    "methods": {
      "close()": {
        "details": "Stops the contract execution forever and returns funds to the owner."
      },
      "renounceOwnership()": {
        "details": "Leaves the contract without owner. It will not be possible to call (`onlyOwner`) functions anymore. Can only be called by the current owner.      * NOTE: Renouncing ownership will leave the contract without an owner, thereby removing any functionality that is only available to the owner."
      },
      "tipImageOwner(uint256)": {
        "details": "Tip Image Owner only when certain requirements are met"
      },
      "toggleCircuitBreaker()": {
        "details": "OnlyOwner controls the Circuitbreaker switch between isActive and notActive."
      },
      "transferOwnership(address)": {
        "details": "Transfers ownership of the contract to a new account newOwner. Can only be called by the current owner."
      },
      "uploadImage(string,string)": {
        "details": "Upload Images to IPFS only when required conditions are fulfilled."
      }
    }
  },
  "userdoc": {
    "methods": {}
  }
}